{
  "contractName": "Ipfs",
  "abi": [
    {
      "inputs": [
        {
          "internalType": "uint256",
          "name": "",
          "type": "uint256"
        }
      ],
      "name": "fileMap",
      "outputs": [
        {
          "internalType": "string",
          "name": "fileName",
          "type": "string"
        },
        {
          "internalType": "string",
          "name": "fileType",
          "type": "string"
        },
        {
          "internalType": "string",
          "name": "fileURL",
          "type": "string"
        }
      ],
      "stateMutability": "view",
      "type": "function",
      "constant": true
    },
    {
      "inputs": [
        {
          "internalType": "string",
          "name": "_fileName",
          "type": "string"
        },
        {
          "internalType": "string",
          "name": "_fileType",
          "type": "string"
        },
        {
          "internalType": "string",
          "name": "_fileURL",
          "type": "string"
        }
      ],
      "name": "storeFile",
      "outputs": [],
      "stateMutability": "nonpayable",
      "type": "function"
    },
    {
      "inputs": [
        {
          "internalType": "uint256",
          "name": "_fileCount",
          "type": "uint256"
        }
      ],
      "name": "returnFile",
      "outputs": [
        {
          "components": [
            {
              "internalType": "string",
              "name": "fileName",
              "type": "string"
            },
            {
              "internalType": "string",
              "name": "fileType",
              "type": "string"
            },
            {
              "internalType": "string",
              "name": "fileURL",
              "type": "string"
            }
          ],
          "internalType": "struct Ipfs.file",
          "name": "",
          "type": "tuple"
        }
      ],
      "stateMutability": "view",
      "type": "function",
      "constant": true
    },
    {
      "inputs": [],
      "name": "getFileCount",
      "outputs": [
        {
          "internalType": "uint256",
          "name": "",
          "type": "uint256"
        }
      ],
      "stateMutability": "view",
      "type": "function",
      "constant": true
    }
  ],
  "bytecode": "0x60806040526001805534801561001457600080fd5b50610b3e806100246000396000f3fe608060405234801561001057600080fd5b506004361061004c5760003560e01c80634f982205146100515780637dd77d2b14610083578063ba2f4c501461009f578063bab50cc9146100cf575b600080fd5b61006b6004803603810190610066919061064f565b6100ed565b60405161007a93929190610715565b60405180910390f35b61009d60048036038101906100989190610896565b6102af565b005b6100b960048036038101906100b4919061064f565b610355565b6040516100c691906109e5565b60405180910390f35b6100d7610537565b6040516100e49190610a16565b60405180910390f35b600060205280600052604060002060009150905080600001805461011090610a60565b80601f016020809104026020016040519081016040528092919081815260200182805461013c90610a60565b80156101895780601f1061015e57610100808354040283529160200191610189565b820191906000526020600020905b81548152906001019060200180831161016c57829003601f168201915b50505050509080600101805461019e90610a60565b80601f01602080910402602001604051908101604052809291908181526020018280546101ca90610a60565b80156102175780601f106101ec57610100808354040283529160200191610217565b820191906000526020600020905b8154815290600101906020018083116101fa57829003601f168201915b50505050509080600201805461022c90610a60565b80601f016020809104026020016040519081016040528092919081815260200182805461025890610a60565b80156102a55780601f1061027a576101008083540402835291602001916102a5565b820191906000526020600020905b81548152906001019060200180831161028857829003601f168201915b5050505050905083565b604051806060016040528084815260200183815260200182815250600080600154815260200190815260200160002060008201518160000190805190602001906102fa929190610541565b506020820151816001019080519060200190610317929190610541565b506040820151816002019080519060200190610334929190610541565b509050506001600081548092919061034b90610ac0565b9190505550505050565b61035d6105c7565b60008083815260200190815260200160002060405180606001604052908160008201805461038a90610a60565b80601f01602080910402602001604051908101604052809291908181526020018280546103b690610a60565b80156104035780601f106103d857610100808354040283529160200191610403565b820191906000526020600020905b8154815290600101906020018083116103e657829003601f168201915b5050505050815260200160018201805461041c90610a60565b80601f016020809104026020016040519081016040528092919081815260200182805461044890610a60565b80156104955780601f1061046a57610100808354040283529160200191610495565b820191906000526020600020905b81548152906001019060200180831161047857829003601f168201915b505050505081526020016002820180546104ae90610a60565b80601f01602080910402602001604051908101604052809291908181526020018280546104da90610a60565b80156105275780601f106104fc57610100808354040283529160200191610527565b820191906000526020600020905b81548152906001019060200180831161050a57829003601f168201915b5050505050815250509050919050565b6000600154905090565b82805461054d90610a60565b90600052602060002090601f01602090048101928261056f57600085556105b6565b82601f1061058857805160ff19168380011785556105b6565b828001600101855582156105b6579182015b828111156105b557825182559160200191906001019061059a565b5b5090506105c391906105e8565b5090565b60405180606001604052806060815260200160608152602001606081525090565b5b808211156106015760008160009055506001016105e9565b5090565b6000604051905090565b600080fd5b600080fd5b6000819050919050565b61062c81610619565b811461063757600080fd5b50565b60008135905061064981610623565b92915050565b6000602082840312156106655761066461060f565b5b60006106738482850161063a565b91505092915050565b600081519050919050565b600082825260208201905092915050565b60005b838110156106b657808201518184015260208101905061069b565b838111156106c5576000848401525b50505050565b6000601f19601f8301169050919050565b60006106e78261067c565b6106f18185610687565b9350610701818560208601610698565b61070a816106cb565b840191505092915050565b6000606082019050818103600083015261072f81866106dc565b9050818103602083015261074381856106dc565b9050818103604083015261075781846106dc565b9050949350505050565b600080fd5b600080fd5b7f4e487b7100000000000000000000000000000000000000000000000000000000600052604160045260246000fd5b6107a3826106cb565b810181811067ffffffffffffffff821117156107c2576107c161076b565b5b80604052505050565b60006107d5610605565b90506107e1828261079a565b919050565b600067ffffffffffffffff8211156108015761080061076b565b5b61080a826106cb565b9050602081019050919050565b82818337600083830152505050565b6000610839610834846107e6565b6107cb565b90508281526020810184848401111561085557610854610766565b5b610860848285610817565b509392505050565b600082601f83011261087d5761087c610761565b5b813561088d848260208601610826565b91505092915050565b6000806000606084860312156108af576108ae61060f565b5b600084013567ffffffffffffffff8111156108cd576108cc610614565b5b6108d986828701610868565b935050602084013567ffffffffffffffff8111156108fa576108f9610614565b5b61090686828701610868565b925050604084013567ffffffffffffffff81111561092757610926610614565b5b61093386828701610868565b9150509250925092565b600082825260208201905092915050565b60006109598261067c565b610963818561093d565b9350610973818560208601610698565b61097c816106cb565b840191505092915050565b600060608301600083015184820360008601526109a4828261094e565b915050602083015184820360208601526109be828261094e565b915050604083015184820360408601526109d8828261094e565b9150508091505092915050565b600060208201905081810360008301526109ff8184610987565b905092915050565b610a1081610619565b82525050565b6000602082019050610a2b6000830184610a07565b92915050565b7f4e487b7100000000000000000000000000000000000000000000000000000000600052602260045260246000fd5b60006002820490506001821680610a7857607f821691505b602082108103610a8b57610a8a610a31565b5b50919050565b7f4e487b7100000000000000000000000000000000000000000000000000000000600052601160045260246000fd5b6000610acb82610619565b91507fffffffffffffffffffffffffffffffffffffffffffffffffffffffffffffffff8203610afd57610afc610a91565b5b60018201905091905056fea26469706673582212209d278a2260305e1f6c601d4d0859b2d69fc7b7862b347f1d769b342c4bbbeefa64736f6c634300080d0033",
  "immutableReferences": {},
  "source": "pragma solidity 0.8.13;\n\ncontract Ipfs{\n//contract should store file attributes\n//should be able to return attributes\n//should use a file counter to track each file uploaded\n\n    struct file{\n        string fileName;\n        string fileType;\n        string fileURL;\n    }\n\n    mapping(uint => file) public fileMap;\n\n    uint private fileCount = 1;\n\n\n    function storeFile( \n        string memory _fileName, \n        string memory _fileType,  \n        string memory _fileURL\n        ) public {\n        fileMap[fileCount] = file(_fileName, _fileType, _fileURL);\n\n        fileCount++;\n    }\n\n    function returnFile(uint _fileCount) public view returns(file memory){\n        return fileMap[_fileCount];\n    }\n\n    function getFileCount() public view returns(uint){\n        return fileCount;\n    }\n\n\n\n\n\n}",
  "sourcePath": "/Users/nicholassaros/Blockchain/ipfs-app/src/truffle/contracts/Ipfs.sol",
  "compiler": {
    "name": "solc",
    "version": "0.8.13+commit.abaa5c0e.Emscripten.clang"
  },
  "schemaVersion": "3.4.5",
  "updatedAt": "2022-04-28T17:18:27.953Z",
  "networkType": "ethereum",
  "devdoc": {
    "kind": "dev",
    "methods": {},
    "version": 1
  },
  "userdoc": {
    "kind": "user",
    "methods": {},
    "version": 1
  }
}